:100000000C9434000C9449000C9449000C94490061
:100010000C9449000C9449000C9449000C9449003C
:100020000C9449000C9449000C9449000C9449002C
:100030000C9449000C9449000C9449000C9449001C
:100040000C9449000C9449000C9449000C9449000C
:100050000C9449000C9449000C9449000C944900FC
:100060000C9449000C94490011241FBECFEFD8E036
:10007000DEBFCDBF11E0A0E0B1E0E0EBF6E002C0F2
:1000800005900D92A439B107D9F70E947E020C9415
:1000900056030C94000080E090E02091BC0027FD06
:1000A0000BC00196823523EC9207B9F782E191E00B
:1000B0000E940C0281E0089580E008959B01AC014C
:1000C0001092B90060E074E284EF90E00E94200397
:1000D000DA01C9014097A109B109B695A79597958D
:1000E00087958093B80084E08093BC000895CF93F7
:1000F000C82F84EA8093BC000E944B0081110CC081
:10010000C093BB0084E88093BC000E944B0091E048
:10011000811103C090E001C091E0892FCF91089533
:1001200084E98093BC0080E090E02091BC0024FF33
:1001300009C00196823523EC9207B9F786E291E077
:100140000C940C0208958093BB0084E88093BC005B
:100150000E944B0091E0811101C090E0892F089529
:10016000CF93DF93EC0184EC8093BC000E944B00A2
:10017000811104C09091BB00988301C081E0DF91A0
:10018000CF910895CF93DF93EC0184E88093BC0076
:100190000E944B00811104C09091BB00988301C064
:1001A00081E0DF91CF910895CF93DF93D62FC42FB5
:1001B000880F0E947700882311F0C1E00DC08D2FB9
:1001C0000E94A3008111F9CF8C2F0E94A300C82F99
:1001D0008111F3CF0E9490008C2FDF91CF91089571
:1001E000AF92BF92DF92EF92FF920F931F93CF9344
:1001F000DF93C82FD62FF42E152F022F880F0E94C1
:100200007700882319F0DD24D3942BC08D2F0E9412
:10021000A3008111F8CF8C2F880F81600E94770096
:10022000D82E8111F0CFCF2DD12F10E0E12CF12C61
:10023000580181E0A81AB108E016F10681F0CE015C
:10024000AE14BF0419F40E94C20002C00E94B000A4
:100250008111D9CF8FEFE81AF80A2196EDCF0E94CD
:1002600090008D2DDF91CF911F910F91FF90EF9016
:10027000DF90BF90AF90089540E06BE688E60E9463
:10028000D400882321F089E391E00E940C0240E031
:100290006BE188E60E94D40040E06CE188E60E94B1
:1002A000D40047E069E188E60E94D40046E06AE1B4
:1002B00088E60C94D400CF92DF92EF92FF920F93D6
:1002C0001F93CF93DF9300D000D000D0CDB7DEB71F
:1002D0006C017B018A0126E0AE014F5F5F4F6BE34B
:1002E00088E60E94F000882331F08BE591E00E94BF
:1002F0000C0281E018C029813A8132272327322756
:10030000F601318320832B813C813227232732273A
:10031000F701318320832D813E8132272327322725
:10032000F8013183208326960FB6F894DEBF0FBE06
:10033000CDBFDF91CF911F910F91FF90EF90DF9094
:10034000CF900895CF92DF92EF92FF920F931F9379
:10035000CF93DF9300D000D000D0CDB7DEB76C01D3
:100360007B018A0126E0AE014F5F5F4F63E488E6C0
:100370000E94F000882331F088E791E00E940C028F
:1003800081E018C029813A81322723273227F601DC
:10039000318320832B813C81322723273227F701A9
:1003A000318320832D813E81322723273227F80194
:1003B0003183208326960FB6F894DEBF0FBECDBFE3
:1003C000DF91CF911F910F91FF90EF90DF90CF9031
:1003D00008959B01AC0184E0220F331F441F551F79
:1003E0008A95D1F760E074E284EF90E00E942003E8
:1003F000215031093093C5002093C40088E08093D8
:10040000C10086E08093C20008959091C00095FFDE
:10041000FCCF8093C6000895CF93DF93EC018991C0
:10042000882319F00E940502FACFDF91CF91089539
:10043000CF92DF92EF92FF920F931F93CF93DF93B0
:10044000CDB7DEB727970FB6F894DEBF0FBECDBF8E
:100450008C0197FF07C08DE20E940502119501955E
:10046000110902C0892B51F0CE0101967C01FC01DB
:1004700020E030E08AE0C82ED12C14C080E327961B
:100480000FB6F894DEBF0FBECDBFDF91CF911F91A5
:100490000F91FF90EF90DF90CF900C9405022630E3
:1004A000310559F02F5F3F4FC801B6010E940C0380
:1004B000805D81938B01672B91F78701020F131FDA
:1004C0000E151F0531F0F80182918F010E9405027F
:1004D000F7CF27960FB6F894DEBF0FBECDBFDF91E2
:1004E000CF911F910F91FF90EF90DF90CF900895E3
:1004F0008DE00E9405028AE00C940502CF93DF9301
:10050000CDB7DEB760970FB6F894DEBF0FBECDBF94
:1005100060E875E280E090E00E94E90160EA76E838
:1005200081E090E00E945E000E943C01188A1F86D4
:100530001E861D861C861B861A86198618861F82B3
:100540001E821D8280E2C82E81EAD82E87E0E82E26
:10055000F12CAE01455F5F4FBE01635F7F4FCE015F
:100560000F960E945B01AE014B5F5F4FBE01695F5A
:100570007F4FCE0109960E94A20180E091E00E9487
:100580000C028F8598890E94180288E091E00E94F1
:100590000C028D859E850E94180288E091E00E94E1
:1005A0000C028B859C850E9418020E9478028BE0C9
:1005B00091E00E940C0289859A850E94180288E0C9
:1005C00091E00E940C028F8198850E94180288E0B9
:1005D00091E00E940C028D819E810E9418020E946F
:1005E00078020E9478020E947802C982DA82EB8245
:1005F000FC8289819A81AB81BC81AC01BD014150F3
:1006000051096109710949835A836B837C83892B62
:100610008A2B8B2B71F79DCF97FB072E16F4009436
:1006200007D077FD09D00E94420307FC05D03EF4B5
:10063000909581959F4F0895709561957F4F08958E
:10064000A1E21A2EAA1BBB1BFD010DC0AA1FBB1FD6
:10065000EE1FFF1FA217B307E407F50720F0A21B48
:10066000B30BE40BF50B661F771F881F991F1A94B5
:1006700069F760957095809590959B01AC01BD01DF
:10068000CF010895AA1BBB1B51E107C0AA1FBB1FC6
:10069000A617B70710F0A61BB70B881F991F5A950E
:1006A000A9F780959095BC01CD010895F894FFCFEE
:1006B000416363656C3A20002C20004779726F3AE1
:1006C00020004932432054696D656F75742045726E
:1006D000726F720D0A004932432053544F50205418
:1006E000696D656F75740D0A004D505536303530A3
:1006F00020496E6974204572726F722028505752DB
:100700005F4D474D545F31290D0A004D505536302D
:10071000353020416363656C205265616420546903
:100720006D656F75740D0A004D50553630353020AB
:100730004779726F20526561642054696D656F75E9
:04074000740D0A002A
:00000001FF
